:020000040800F2
:10000000B031002089010008610A0008DF050008FE
:1000100099080008C3020008091300080000000046
:10002000000000000000000000000000B9110008FE
:100030005D0400080000000097110008A5120008E8
:10004000A3010008A3010008A3010008A301000800
:10005000A3010008A3010008A3010008A3010008F0
:10006000A3010008A3010008A3010008A3010008E0
:10007000A3010008A3010008A3010008A3010008D0
:10008000A3010008A3010008A3010008A3010008C0
:10009000A3010008A3010008A3010008A3010008B0
:1000A000A3010008A3010008A3010008A3010008A0
:1000B000A3010008A3010008A3010008A301000890
:1000C000A3010008A3010008A3010008A301000880
:1000D000A3010008A3010008A3010008A301000870
:1000E000A3010008A3010008A301000800F002F822
:1000F00000F03AF80AA090E8000C82448344AAF188
:100100000107DA4501D100F02FF8AFF2090EBAE885
:100110000F0013F0010F18BFFB1A43F0010318473B
:10012000543A0000743A0000103A24BF78C878C1ED
:10013000FAD8520724BF30C830C144BF04680C60ED
:10014000704700000023002400250026103A28BF35
:1001500078C1FBD8520728BF30C148BF0B60704739
:100160001FB51FBD10B510BD00F076F81146FFF7A2
:10017000F7FF01F0CBF800F094F803B4FFF7F2FFBB
:1001800003BC00F097F80000094880470948004781
:10019000FEE7FEE7FEE7FEE7FEE7FEE7FEE7FEE737
:1001A000FEE7FEE704480549054A064B7047000094
:1001B000A9120008ED000008B02B0020B03100208B
:1001C000B02D0020B02D00204FF0013C50F8042B42
:1001D00051F8043B9A4221D1A2EB0C03934313EA5A
:1001E000CC1317D150F8042B51F8043B9A4215D187
:1001F000A2EB0C03934313EACC130BD150F8042B5E
:1002000051F8043B9A4209D1A2EB0C03934313EA41
:10021000CC13DBD04FF00000704700BFD01A01BAFA
:10022000B1FA81F101F0180122FA01F0CB40C1F1DD
:100230002001DBB2C0B2C01A2CFA01F3D11A9143EB
:1002400011EAC311E6D1704770477047704700004C
:10025000004870474C2B00207546FFF7F9FFAE466B
:1002600005006946534620F00700854618B020B5C2
:10027000FFF798FFBDE820404FF000064FF0000761
:100280004FF000084FF0000B21F00701AC46ACE83E
:10029000C009ACE8C009ACE8C009ACE8C0098D46AB
:1002A000704710B50446AFF300802046BDE810400B
:1002B000FFF763BF01491820ABBEFEE7260002002E
:1002C000704700BFFEE7000008B50121042000F0E0
:1002D00063FF0120ADF8000014208DF80300032017
:1002E0008DF802006946024800F0DCF808BD000005
:1002F000000801402DE9F05F00F02EF8CC2000F05E
:100300007DF8442000F07AF84FF4FA7000F0B3F86A
:1003100000F022F8CC2000F071F8BE2000F06EF85A
:1003200000F03EF8044600F03BF8814644EA09201C
:100330000FFA80FA504601F09EFE07460022054B58
:1003400001F000FF054601F083FD83465846BDE8F5
:10035000F09F00000000B03F10B501210F4800F0F1
:1003600037F90A2000F087F801210C4800F02EF937
:100370004FF4FA7000F07FF80121084800F028F9E6
:100380003C2000F078F80121044800F016F90446FA
:10039000F02000F070F8204610BD00000008014079
:1003A00070B500240121144800F012F90A2000F071
:1003B00062F800251BE001210F4800F007F9012039
:1003C00000F059F801210C4800F002F90A2000F071
:1003D00052F864100121084800F0EFF8012801D11B
:1003E00044F080042D2000F046F8681CC5B2082DAA
:1003F000E1DB204670BD00000008014070B50446F6
:100400000121154800F0E4F80A2000F034F8002536
:100410001FE00121104800F0D9F8052000F02BF86A
:1004200004F0010020B101210B4800F0D1F803E0F5
:100430000121094800F0CAF83C2000F01CF8012115
:10044000054800F0C5F8012000F015F86410681C9C
:10045000C5B2082DDDDB70BD00080140704700B556
:10046000034603E04FF47A7000F005F8181EA3F17C
:100470000103F7D100BD00EBC001C9004FF0E0223D
:100480005161002191610521116100BF4FF0E02110
:10049000096901F480310029F8D004214FF0E022ED
:1004A000116170472DE9F041024600250026002029
:1004B00000230024002791F803C00CF00F0591F8E9
:1004C00003C00CF0100CBCF1000F03D091F802C077
:1004D0004CEA050591F800C0BCF1000F31D014685A
:1004E00000202BE04FF0010C0CFA00F3B1F800C033
:1004F0000CEA03069E4220D183004FF00F0C0CFA49
:1005000003F7BC4305FA03FC4CEA040491F803C06A
:10051000BCF1280F06D14FF0010C0CFA00FCC2F818
:1005200014C00AE091F803C0BCF1480F05D14FF0A8
:10053000010C0CFA00FCC2F810C0401C0828D1D3F2
:100540001460B1F800C0BCF1FF0F34DD5468002026
:100550002EE000F1080C4FF0010808FA0CF3B1F896
:1005600000C00CEA03069E4221D183004FF00F0C1D
:100570000CFA03F7BC4305FA03FC4CEA040491F8B7
:1005800003C0BCF1280F05D100F1080C08FA0CF8E3
:10059000C2F8148091F803C0BCF1480F07D100F1F4
:1005A000080C4FF0010808FA0CF8C2F81080401C43
:1005B0000828CED35460BDE8F0810246002093683D
:1005C0000B400BB1012000E00020704741617047F3
:1005D000016170470AB1016100E04161704700BFED
:1005E000FEE7000008B50121042000F0D5FD8020C1
:1005F000ADF8000048208DF8030069461B48FFF75E
:1006000051FF4021092000F092F84021092000F01C
:100610008EF8C021022000F08AF80021032000F0AB
:1006200086F80021042000F082F80021052000F067
:100630007EF80021062000F07AF80F21082000F053
:1006400076F80321092000F072F827210A2000F033
:100650006EF824210C2000F06AF824210D2000F00F
:1006600066F87F21102000F062F808BD0008014004
:1006700070B506460D46002000F02BF8012000F072
:1006800028F800F06EF9AE2000F046F900F0A6F967
:10069000072000F041F900F0A1F900F062F9AF2065
:1006A00000F03AF900F09AF900240DE000F000F9AA
:1006B0003055681EA04203D1012000F018F902E075
:1006C000002000F014F9641CAC42EFDB00F05DF98F
:1006D00070BD70B5044600F044F9AE2000F01CF97E
:1006E00000F07CF918B100F050F9002070BD2046F0
:1006F00000F012F900F072F918B100F046F900208C
:10070000F4E700F02EF9AF2000F006F900F066F9EA
:1007100018B100F03AF90020E8E700F0C9F8054602
:10072000012000F0E4F800F030F92846DEE770B56B
:1007300005460C4600F015F9AE2000F0EDF800F08B
:100740004DF918B100F021F9002070BD284600F0E5
:10075000E3F800F043F918B100F017F90020F4E7CE
:10076000204600F0D9F800F039F918B100F00DF981
:100770000020EAE700F009F90120E6E72DE9F04161
:1007800006460F4690463B2000F050F804463C20B9
:1007900000F04CF8054645EA042000B230803D20C8
:1007A00000F044F804463E2000F040F8054645EAD3
:1007B000042000B238803F2000F038F80446402082
:1007C00000F034F8054645EA042000B2A8F800001D
:1007D000BDE8F08110B580216B2000F046F8642060
:1007E000FFF73DFE01216B2000F03FF800216C2057
:1007F00000F03BF80921192000F037F806211A20F3
:1008000000F033F818211B2000F02FF818211C20CD
:1008100000F02BF80021232000F027F800216A20A7
:1008200000F023F8C820FFF71AFE10BD70B504468B
:1008300000F097F8D02000F06FF800F0CFF82046D5
:1008400000F06AF800F0CAF800F08BF8D12000F050
:1008500063F800F0C3F800F02BF80546002000F024
:1008600046F800F092F8284670BD70B505460C4673
:1008700000F077F8D02000F04FF800F0AFF82846ED
:1008800000F04AF800F0AAF8204600F045F800F021
:10089000A5F800F07AF870BD00BFFEE710B5802122
:1008A0000248FFF78AFE0446204610BD000C0140B6
:1008B00070B50025012000F087F8002413E0002027
:1008C00000F078F80220FFF7D6FD012000F072F862
:1008D000FFF7E4FF10B18020204105430120FFF71E
:1008E000CAFD601CC4B2082CE9DB284670BD10B5F7
:1008F0000446002000F05EF8204600F065F8022073
:10090000FFF7B9FD012000F055F80220FFF7B3FD15
:10091000002000F04FF810BD70B50546002000F033
:1009200049F800241AE080212141294009B1012120
:1009300000E00021084600F047F80220FFF79BFD89
:10094000012000F037F80220FFF795FD002000F0AD
:1009500031F80220FFF78FFD601CC4B2082CE2DBE7
:1009600070BD10B5012000F02FF8012000F022F832
:100970000420FFF780FD002000F026F80420FFF798
:100980007AFD002000F016F810BD10B5002000F030
:1009900011F8002000F018F80420FFF76CFD01208A
:1009A00000F008F8012000F00FF80420FFF763FDC5
:1009B00010BD000010B50446224640210148FFF753
:1009C00009FE10BD000C014010B5044622468021EE
:1009D0000148FFF7FFFD10BD000C014010B50024D9
:1009E0000120FFF7F1FF0120FFF745FD0120FFF790
:1009F000E1FF0120FFF73FFD07E0601CC4B2FA2CC5
:100A000003DDFFF7C2FF012010BDFFF747FF0028FD
:100A1000F3D1FFF7CFFF0020F6E7000008B5012172
:100A2000082000F0B9FB4020ADF8000014208DF83C
:100A3000030003208DF8020069460848FFF732FDE5
:100A40008020ADF8000069460448FFF72BFD012027
:100A5000FFF7B0FF0120FFF7B7FF08BD000C014012
:100A60007047000000200CE0002106E00022064B49
:100A700003EBC0135A544A1CD1B28029F6DB421C46
:100A8000D0B20828F0DB7047AC1700202DE9F04306
:100A900004460D4616461F46284638E0224631E0F9
:100AA000002A2DDB7F2A2BDC002829DB3F2827DCCE
:100AB0004FEAE07C00EB5C7C4FEAEC0CDFF85880FE
:100AC00008EBCC1C1CF802C003464FEAE07800EBB0
:100AD00058784FEAE808A0EBC8094FF0010808FA77
:100AE00009F82CEA080C01464FEAE07800EB587848
:100AF0004FEAE808DFF8209009EBC81808F802C0B0
:100B0000511C0AB2A1199142CADC411C08B2E91970
:100B10008142C3DCBDE8F083AC17002038B5002467
:100B200006E0002500E06D1CB5F57A7FFBD3641C60
:100B3000B4F57A7FF5D30121082000F02DFB1420B5
:100B40008DF8030003208DF802004FF48070ADF89B
:100B5000000069460848FFF7A5FC4FF40070ADF8A7
:100B6000000069460448FFF79DFC012000F0D4FA1C
:100B7000012000F0DDFA38BD000C014070B50546DB
:100B8000002411E080212141294009B1012100E028
:100B90000021084600F0CCFA012000F0BDFA002048
:100BA00000F0BAFA601CC4B2082CEBDB012000F0A4
:100BB000B3FA002000F0B0FA70BD10B5012000F0CB
:100BC000B7FA012000F0A8FA002000F0B1FA0020E6
:100BD00000F0A2FA10BD10B5002000F0A9FA012023
:100BE00000F09AFA012000F0A3FA10BD10B5FFF74B
:100BF00095FFAE2000F0A8FAD52000F0A5FA8020DD
:100C000000F0A2FAA82000F09FFA3F2000F09CFA22
:100C1000D32000F099FA002000F096FA402000F06E
:100C200093FAA12000F090FAC82000F08DFADA20A3
:100C300000F08AFA122000F087FA812000F084FA8E
:100C4000CF2000F081FAD92000F07EFAF12000F0E8
:100C50007BFADB2000F078FA302000F075FAA4204F
:100C600000F072FAA62000F06FFA8D2000F06CFA06
:100C7000142000F069FAAF2000F066FAFFF7F2FEE8
:100C800000F036FA10BD10B50246012000E05043D6
:100C90000B1EA1F10101FAD110BD70B505460C463D
:100CA00045F0B00000F050FA102141EA141000F0B5
:100CB0004BFA04F00F0000F047FA70BDF8B5064695
:100CC0000F4614461D46082D0CD1A4F120000E49F4
:100CD00001EB00101023082239460090304600F046
:100CE00081F80FE0062D0DD1A4F1200000EB4000AB
:100CF000064901EB400008230622394600903046A1
:100D000000F070F8F8BD0000402E000830340008F4
:100D10002DE9FF5F86B0074614461D46DDF850807A
:100D2000169E002213462046294601F009FB06D8EC
:100D300033462B2238460799FFF7C0FF07E03346BA
:100D40002D2238460799FFF7B9FF85F00045204668
:100D5000294601F063F98246504601F0A3F9224684
:100D60002B46CDE9040101F07BFB04460D460A2029
:100D70001599FFF788FF8146484601F093F922460E
:100D80002B46CDE9000101F0DDF9CDE9020101F0CA
:100D900015F8CDE9040101F041F98346BBFBF9F0F8
:100DA0008244B91908B2434652460096079900F0AA
:100DB00097F808F1010101FB067108B233462E22B3
:100DC0000799FFF77BFF08F1020101FB067108B2EA
:100DD00000965A46159B079900F082F80AB0BDE8C4
:100DE000F09F00002DE9FF4F80460E469146DDF84A
:100DF00034B0002500244A4631464046039BFFF7A5
:100E000045FE00BF5EE0002558E008EB0500002825
:100E100052DB08EB05007F284EDC3046F11706EB6D
:100E20005171C9100FB2F11706EB5171C910A6EB41
:100E3000C10A002E05DA781E07B20AF108000FFA7F
:100E400080FA3819002817DB3819072814DC3819FC
:100E5000224901EBC01008EB0501405C04FB09517D
:100E60001BF8011001FA0AF1084339191B4A02EB79
:100E7000C11108EB050288543819401C00281BDBFF
:100E80003819401C072817DC3819401C134901EB9E
:100E9000C01008EB0501405C04FB09511BF8011070
:100EA000CAF10802114108433919491C0B4A02EBE7
:100EB000C11108EB05028854681CC5B24D45A4DB7E
:100EC000601CC4B20399481EC11700EB5171012286
:100ED00002EBE101A14296DCBDE8FF8FAC170020D8
:100EE0002DE9F0470646894617461D46DDF8208065
:100EF000002417E0281B411E0A20FFF7C4FEB7FBA1
:100F0000F0F00A21B0FBF1F201FB120000F1300A0F
:100F100004FB086108B2434652464946FFF7CEFE3D
:100F2000601CC4B2AC42E5DBBDE8F0872DE9FE4FA2
:100F300007468A46144698460025AB460026CBE075
:100F4000605D00F0800058B94FF0010B2846691C25
:100F50008DB2205C8DF8040000208DF805006BE058
:100F6000605D00F0E000C02814D14FF0020B28466D
:100F7000691C8DB2205C8DF80400605D00B9AFE0A3
:100F80002846691C8DB2205C8DF8050000208DF884
:100F9000060051E0605D00F0F000E0281DD14FF048
:100FA000030B2846691C8DB2205C8DF80400605D3F
:100FB00000B995E02846691C8DB2205C8DF80500CB
:100FC000605D00B98CE02846691C8DB2205C8DF80C
:100FD000060000208DF807002EE0605D00F0F800AC
:100FE000F02826D14FF0040B2846691C8DB2205CF6
:100FF0008DF80400605D00B972E02846691C8DB26E
:10100000205C8DF80500605D00B969E02846691C28
:101010008DB2205C8DF80600605D00B960E0284666
:10102000691C8DB2205C8DF8070000208DF8080047
:1010300002E0681C85B24FE0BBF1010F0BD19DF8B7
:101040000420B91908B243465146FFF737FE06EBB4
:10105000080086B23FE04FF000090EE009EB89017D
:1010600001EB4911204A881801A9FFF7ADF800B932
:101070000EE009F101001FFA80F909EB890101EB8B
:101080004911194A881819A1FFF79EF80028E5D1DF
:1010900000BFB8F1080F12D109EB890000EB49102D
:1010A00011490844401DB919009008B210231A468E
:1010B0005146FFF797FE06F1100086B20BE0B8F13B
:1010C000060F08D1B91908B206233F225146FFF78F
:1010D000F5FDB01D86B200BF605D00287FF430AF23
:1010E00000BFBDE8FE8F00006A3600080000000067
:1010F00010B500240BE000212046FFF7CEFD054986
:1011000001EBC410802100F02FF8601CC4B2082C41
:10111000F1DB10BDAC17002010B5044622464FF499
:1011200080710248FFF756FA10BD0000000C014024
:1011300010B5044622464FF400710248FFF74AFA00
:1011400010BD0000000C014010B50446FFF735FD4E
:101150007820FFF713FD0020FFF710FD2046FFF772
:101160000DFDFFF738FD10BD70B505460E46FFF7C3
:1011700024FD7820FFF702FD4020FFF7FFFC00244C
:1011800004E0285DFFF7FAFC601CC4B2B442F8DB4F
:10119000FFF721FD70BD704729B1064A92690243ED
:1011A000044B9A6104E0034A92698243014B9A61BD
:1011B0007047000000100240704710B500F002F8C0
:1011C00010BD00000CB5002001900090334800686D
:1011D00040F480303149086000BF3048006800F4B6
:1011E000003000900198401C0190009818B90198B7
:1011F000B0F5A06FF1D12948006800F4003010B1BB
:101200000120009001E0002000900098012843D1C7
:101210002348006840F01000214908600846006833
:1012200020F0030008600846006840F002000860F3
:101230001A484068194948600846406848600846AE
:10124000406840F4806048600846406820F47C10A4
:1012500048600846406840F4E81048600846006866
:1012600040F08070086000BF0C48006800F000701B
:101270000028F9D00948406820F003000749486079
:101280000846406840F00200486000BF03484068DC
:1012900000F00C000828F9D10CBD0000001002403D
:1012A000002002407047000010B51348006840F06D
:1012B00001001149086008464068104908400E497D
:1012C0004860084600680E4908400B490860084617
:1012D000006820F4802008600846406820F4FE0082
:1012E00048604FF41F008860FFF767FF4FF0006011
:1012F0000449086010BD0000001002400000FFF823
:10130000FFFFF6FE08ED00E000BFFEE70EB5FEF7BA
:10131000DBFFFFF783FBFFF765F9FFF767FCFFF7DC
:1013200059FAFD4AFD49FE48FFF728FAFC49B1F990
:1013300000104943F94AB2F90020F84BB3F90030E4
:1013400002FB0311F44AB2F90020F34BB3F9003069
:1013500002FB031001F026FBF2490860FFF782FB55
:10136000F148F24908600020F14908600823F1A221
:1013700000210846FFF7DAFD0823F0A200214820EB
:10138000FFF7D4FD0823EEA210210020FFF7CEFDC9
:101390000823252210214020FFF790FC0823EAA211
:1013A00020210020FFF7C2FD0823E9A23021002000
:1013B000FFF7BCFDFFF79CFE0020E74908604FE007
:1013C00000BF8021E548FFF7F8F80128F9D0062191
:1013D000E348FFF74DF9E24800788007800BE049C9
:1013E000497840EA0120DE4989780843DD49DA4A34
:1013F000126841F82200DA48C0788007800BD8498B
:10140000097940EA0120D64949790843D649D24AA8
:10141000126841F82200D348CF49096850F82100EA
:10142000C2490968884206D2CE48CB49096850F8BB
:101430002100BE490860CB48C749096850F821001F
:10144000BB490968884206D9C648C349096850F8AB
:101450002100B7490860C0480068401CBE490860C8
:10146000BD480068C14909688842A9DBBA480068DC
:10147000401EBC4951F82000BD490860BD48BE4926
:10148000BE4ABF4BCDE900210290B64AB748016879
:10149000B54800F017FADDE1A348A4490860002030
:1014A000A34908606420AC4908603AE0AD48AA4905
:1014B000096850F82110A84800686438A94A42F821
:1014C0002010A948A449096850F82110A2480068D2
:1014D0006438A54A42F82010A2489F49096850F88C
:1014E000210092490968884206D29E489A490968B3
:1014F00050F821008D4908609A489749096850F8CA
:1015000021008B490968884206D9964892490968A2
:1015100050F82100864908608F480068401C8E49B9
:1015200008608D480068B0F5FA7FBFDB4FF4C870E3
:1015300089490860A3E088480068401E894951F83D
:1015400020008B49086000BF80218448FFF735F8F0
:101550000128F9D006218248FFF78AF880480078F0
:101560008007800B7E49497840EA01207C498978D0
:1015700008437C49784A126841F822007848C078CC
:101580008007800B7649097940EA0120744949793E
:1015900008437549704A126841F8220071486E4943
:1015A000096850F8210072490968884231D96D49AB
:1015B000694A126851F822106D4A1268881A01F0BF
:1015C00009FA704908605A490968584A1268881A25
:1015D00001F000FA044621466A48006801F0D0F89C
:1015E0006849086068496748006801F03BFA654946
:1015F00008600846006801F0B9F964490968081AEA
:101600006249086008460068002833DA0020086054
:1016100030E05449504A126851F82210544A126876
:10162000501A01F0D7F957490860414909683F4A03
:101630001268881A01F0CEF9044621465148006824
:1016400001F09EF84F4908604F494E48006801F08C
:1016500009FA4C4908600846006801F087F94B49CF
:10166000096808444949086008460068FF2801DD08
:10167000FF20086038480068401C37490860364839
:101680000068B0F5FA7FFFF656AF3A483A493B4A50
:101690003B4BCDE900210290324A34480168324880
:1016A00000F010F933480078012810D13248006862
:1016B000D2280CDA30480068282808DD2E48007847
:1016C000334908702E4800783249087004E0002041
:1016D0002F4908702F4908700820032300902C48D8
:1016E000027800213020FFF7FBFB08200223009046
:1016F0002848027810213020FFF7F2FBFEF7FAFDB0
:101700000446002101F0FEF852D0FEF7F3FD064634
:1017100000F09CFF04463FE036000020340000202B
:101720003200002038000020FFFF030014000020DA
:1017300018000020E5BF83E78E873A0042504D0035
:10174000E8A180E6B0A73A00E6B8A9E5BAA63A0053
:10175000E78AB6E680813A002000002000080140B8
:101760002C0000207C230020AC1B00200000002067
:101770001C000020100000200C00002008000020A9
:10178000040000202800002000007F4324000020E7
:1017900011000020120000200B46082002210091B9
:1017A0002246CDE9011020213020FFF7B1FA0AE0EE
:1017B00008200221009100221346CDE901102021CA
:1017C0003020FFF7A5FA244A24492548FEF7D6FF22
:1017D0002349B1F900104943204AB2F900201F4BB8
:1017E000B3F9003002FB03121B49B1F900101A4B88
:1017F000B3F9003001FB032001F0D4F81949086067
:10180000194801681748006801F02AFA174908606A
:1018100000211648006801F0F1F805D2134800686D
:1018200080F00040114908604FF095410F48006872
:1018300001F0E4F906D208230DA230210846FFF793
:1018400075FB05E008230CA230210846FFF76EFB6C
:10185000FFF74EFC20E60000400000203E00002084
:101860003C000020440000203800002048000020F8
:10187000E69194E580920000E6ADA3E5B8B80000DB
:101880002DE9F84705460C4616461F46DDE90A9A3B
:10189000DDF824803B46324621462846CDF80080BC
:1018A00000F0C2F94B4632462146284600F011FAB4
:1018B0002068504501DA206800E050462060BDE80D
:1018C000F88700002DE9FF4FA4B08346884600202A
:1018D0002390002405E05BF824102398084423900B
:1018E000641C4445F7DB2398B0FBF8F023900024F8
:1018F00008E05BF824102398081A4042C64941F8D2
:101900002400641C4445F4DB002417E0C24951F86C
:1019100024200B46611C53F821100A44A11C53F8E3
:1019200021100A44E11C53F821105018C11700EB94
:10193000917189101A4642F82410641CB4F5F87F9E
:10194000E4DB0027002404E0B34850F824000744F7
:10195000641CB4F5FA7FF7DB4FF4FA7097FBF0F7ED
:101960001E2F00DA1E273C2F00DD3C27002404E058
:10197000002012A941F82400641C0F2CF8DB0F2072
:1019800004214FF4FA73A44ACDE90071029021A911
:1019900012A8FFF775FF002011902198022821DB83
:1019A00001240BE012A850F82410601E12AA52F86D
:1019B0002000091A119808441190641C219884424F
:1019C000F0DB2198401E119991FBF0F0119041F24B
:1019D0007071119891FBF0F13298016001213398F8
:1019E000017005E08D493298016000213398017043
:1019F00000240BE05BF82400874941F82400269876
:101A000050F82400864941F82400641C4445F1DB69
:101A100021982290002005900026002404E0002058
:101A200006A941F82400641C052CF8DB00240FE013
:101A300012A850F82400B0F5FA7F08DD77492798FE
:101A4000016000213198017028B0BDE8F08F641C5E
:101A500022988442ECDB0024A3E04FF07F400D90FD
:101A60000C9012A9601C51F8200051F82410401A63
:101A700003287DDD12A850F8245016E0664850F87F
:101A800025100C98814204DD634850F825000C9025
:101A90000B95634850F825100D98814204DD60488D
:101AA00050F825000D90AA466D1C12A9601C51F833
:101AB0002000A842E2DC601C51F82000584951F88F
:101AC000200012A951F82410554A52F82110401A4A
:101AD00012A951F82410AAEB01014843109012A951
:101AE000601C51F8200051F82410411A109890FB06
:101AF000F1F012A951F8241052F821100844109066
:101B0000104650F82A101098081A109012A9601C5C
:101B100051F82000404951F8200012A951F8241032
:101B20003D4A52F82110401A12A951F824200B996D
:101B3000891A48430F9012A9601C51F8200051F8EF
:101B40002410411A0F9890FBF1F012A951F82410BB
:101B5000314A52F8211008440F90104650F82A10CC
:101B60000F98081A0F900C9910984843C01100E084
:101B700016E004900D990F984843C0110390039804
:101B800000280DDD052E0BDA049848B16421049875
:101B90004843039990FBF1F006A941F82600761C12
:101BA000641C2298401EA0423FF757AF314606A85A
:101BB00000F0C8F8304606EBD0714FEA6109B9F180
:101BC000010F0CDDA9F1010106AA52F8211052F80B
:101BD0002920881800EBD0714910059103E006A870
:101BE00050F829000590059802280DDD0598B828C1
:101BF0000ADA0C490598085C0E9027990E9808603F
:101C000001213198017005E0044927980160002105
:101C10003198017000BF17E70C08002019FCFFFF86
:101C2000DC0F0020882D00082DE9F04705461E46F0
:101C3000089C01204FF00008002300274FF0040CFF
:101C40004FF00009C1F800903DE0BFBB52F8209072
:101C5000A14509DD52F820A0A0F1010952F8299010
:101C6000CA4501DD4FF00108B8F1010F2AD152F841
:101C70002090A14505DA634503DA4FF00008002300
:101C800020E063451BD152F82090A1451ADAA0F15B
:101C9000010952F82990A14514DBD1F80090B9F15F
:101CA0000F0F07DAD1F800A00AF10109C1F800907E
:101CB00045F82A0000239846082703E001E05B1C52
:101CC00000E07F1E401CA6F101098145BDDCBDE896
:101CD000F0872DE9F04F05460C4692469846294676
:101CE0005046226800F049F84FF0FF3621E0D4F862
:101CF00000B0701C2060771C18E055F82710701C8D
:101D000010B94FF0FF3001E055F82600A1EB0009B3
:101D1000C14503DCC8F10000814506DA55F82710FB
:101D20002268501C206045F822107F1C5F45E4DBD0
:101D3000761C2068B042DADC2846216800F002F800
:101D4000BDE8F08F30B50C46012213E050F8223088
:101D5000114605E04D1E50F8255040F82150491E0F
:101D6000002904DD4D1E50F825509D42F2DC40F85C
:101D70002130521CA242E9DB30BDF0B503461546C6
:101D8000012217E051F82240104605E0461E51F8A6
:101D9000266041F82060401E002808DD53F82470BA
:101DA000461E51F8266053F82660B742EEDC41F833
:101DB0002040521CAA42E5DBF0BD00002DE9F04DA9
:101DC00007460E4600F0F2FA04460D463A46334600
:101DD00000F046FBDFF86CA0DFF86CB01B4B074649
:101DE000884616F0004F4FF000020AD000F06EF95E
:101DF0000AD900225B463846414600F0A1FA1BD2C0
:101E000012E000F063F908D200225346204629462A
:101E100000F032FB04460D460EE000225B463846D9
:101E2000414600F08DFA07D8002253462046294645
:101E300000F040F804460D463146204665F31E0189
:101E4000BDE8F08D0000F03F0000E03F0000E0BF83
:101E500021F00042A2F16052B2F5801F01F0004370
:101E600028BFD2F17F6C0BD95FEA001C43EAC202A3
:101E700042EB507018BF704728BF20F00100704738
:101E8000B2F5801FBCBF184670474FEA410C1CF5E5
:101E9000001F02D2084600F0ACBE70B500F0FCF99D
:101EA00000000089FFF7F6BF4FF00040A0F580006A
:101EB0007047000010B591EA030F48BF83F000435C
:101EC00000F1E282841A71EB030C05D2121943EB84
:101ED0000C03001B61EB0C01DFF824E14FEA115405
:101EE000A4EB135C1EEA430F18BF9EEA445F73D055
:101EF00023EA0E03DCF1200E21EA045143F480139F
:101F000032D322FA0CFE10EB0E0023FA0CFE41EB4A
:101F10000E01CCF1200E03FA0EFE10EB0E0051F173
:101F20000001B1F5801FCCF1200E32D201EB04513B
:101F300012FA0EF2BDE8104058BF7047401C38BF7F
:101F40005FEA420218BF7047002814BF20F001006A
:101F500041F100014FEA410313F5001F38BF7047FC
:101F6000A1F1C04100F0E6B9012A43EB0302ACF154
:101F7000200CDCF11F0E32BF4FF0000E23FA0CF3E1
:101F800010EB030041EB0451B4EB115FD0D0A1EB97
:101F9000045101F5801149085FEA300001EB04515A
:101FA0000ED350F1000038BF12FA0EFE08D1BDE882
:101FB0001040C9E7401C38BF5FEA4202CAD1C3E7FC
:101FC000BDE810404FEA410313F5001F38BF7047CA
:101FD000A1F1C04100F0AEB99EEA445F08D011EA19
:101FE0005E0FBDE8104004BF01F0004100207047C3
:101FF000BDE8104070B500F04FF900BF64FBBE3E75
:102000000000E0FF491058BFC1F140415B1058BFCC
:10201000C3F140438B42EFF3008070474FEA115306
:10202000A3F58063D3F11E03A8BFD3F1200C08DB16
:102030004FF0004242EAC12252EA505232FA03F013
:10204000704709420BD4102BC4BF0020704703F522
:10205000787CBCF1FF3F05D04FF0FF3070474FF068
:102060000000704770B500F017F900BF4992248056
:1020700000207047F0E710F0004248BF4042B0FA3D
:1020800080F310FA03F10AD0C3F11D0303F5806356
:102090004FEA415002EB035202EBD12170474FF05F
:1020A00000007047B0FA80F310FA03F10AD0C3F1D0
:1020B0001D0303F580634FEA41504FEA035202EBE0
:1020C000D12170474FF000007047000051EA030C27
:1020D00017D41CF5801F58BFBCF5801F00F1068087
:1020E000994218BF704708BF9042704707D711F553
:1020F000801F58BF13F5801F19D499427047894239
:1021000070471CF5801F08D5BCF5801FF7D58B42A2
:1021100018BF704708BF824270474FF4001C1CEB89
:10212000410F38BF1CEB430F01D28B42704770B593
:1021300000F0B2F8922449004FF000514FF0805364
:10214000FFF760BFDFF848C170B51CEA111E1EBF63
:102150001CEA13159EEA0C0F95EA0C0F00F06F8035
:1021600081EA030423EA4C134EEAD47E21EA4C119F
:1021700041F4801143F48013AE44A1FB024CA0FB58
:102180000365AEF17F7E361955EB0C05A1FB034CC0
:102190004CF10003A0FB021C16EB0C06654153F149
:1021A0000003094218BF46F0010613F4007F0BD16B
:1021B0004FEA03314FEA0530340341EA155140EA52
:1021C00016506FF003020AE04FEAC3214FEAC52020
:1021D000F40241EA555140EA56506FF0020202EB18
:1021E0002E4201EB025585EACE710AD05FEA440C1B
:1021F00018BF24F0004450F1000041F1000120EA32
:10220000D47040F2FE7C624500D270BDA84214BF7B
:102210004FF080444FF04044002E08BF0024BEF130
:10222000806FA8BFA1F1C041BDE8704080F28280FC
:102230004FF0000001F1C04101F0004170479EEAFB
:102240000C0F0CEA131518BF95EA0C0F06D04FF0CF
:10225000000081EA030E0EF0004170BD00F01CF892
:102260008900013E00F007B800F009B84FEA430CBE
:102270005FEA5C5C08D081EA030100F05BB84FEADA
:10228000410C5FEA5C5CF6D14FF0000001497047F9
:102290000000FF070000F87F0EF1020E2EF0030E83
:1022A0005EF8046B364205D4012A43EB030515F5AD
:1022B000001F12D8012841EB010C1CF5001F0CD89F
:1022C0000ED14FEAD17C15F5001F0CEB4C0C0CF134
:1022D000020C08BF4CEBD37C04E04FF0080C01E08B
:1022E0004FEAD37C0CEB4C0526FA05F606F0070600
:1022F000B6F1040C06D20EEB860CBDE870404CF033
:10230000010C6047DFE80CF0090B02024FF00041BE
:102310004FF00000A1F5002170BD194610460128BC
:1023200051EB010418BFD4F5001484BF002001F064
:10233000004170BD0808A0F500114FEA3101704757
:1023400053EA010C17D41CF5801F58BFBCF5801F41
:1023500000F106808B4218BF704708BF8242704769
:1023600007D713F5801F58BF11F5801F19D48B4272
:1023700070479B4270471CF5801F08D5BCF5801F35
:10238000F7D5994218BF704708BF904270474FF485
:10239000001C1CEB430F38BF1CEB410F01D29942CC
:1023A00070470FB40CBC03BCFFF7C1BE5FEA410C21
:1023B0005FEA5C5CACF580635B1C39D4D3F134021A
:1023C00040F34580B2F1200314DA4FF0010C0CFA0F
:1023D00002FCACF101030340B3EB5C0220EA030012
:1023E00008BF10EA0C0F98BF704710EB0C0041F1CA
:1023F000000170470AD0C3F1200201FA02FC012853
:1024000021FA03F101FA03F14CF100004FF0010C45
:102410000CFA03FCACF10103B0F1004F21EA030117
:1024200008BF11EA0C0F4FF0000088BF61447047ED
:10243000B3F1FF3F28BF50EAC12C01F000414FF03B
:10244000000084BF41F07C5141F470017047B3F546
:10245000806FB8BF704770B5FFF71EFF40DBB6BE98
:1024600091EA030F10B581F000413FF52BAD83F0E9
:10247000004300F009B8000010B591EA030F48BF0F
:1024800083F000433FF51EAD841A71EB030C07D2B5
:1024900012198CF0004C43EB0C03001B61EB0C0198
:1024A000DFF8A4E14FEA1154A4EB135C1EEA430FDA
:1024B00018BF9EEA445F00F0B08023EA6E035242E8
:1024C00021EA0451C3EB6E0338BF5B1EDCF1200E22
:1024D00025D322FA0CFE10EB0E0043FA0CFE41EB62
:1024E0000E01CCF1200E03FA0EFE10EB0E0051F19E
:1024F0000001CCF1200E29D412FA0EF201EB0451A6
:10250000BDE8104058BF7047401C1CBFB2F1004FDF
:10251000704700280CBF491C20F00100704712EBE7
:10252000020E43EB030218BF4FF0010E4EEA4202C7
:10253000ACF1200CDCF11E0E54D943FA0CFE10EB6A
:102540000E0051F1FF31CCF11E0ED5D50EF1010E6A
:1025500012FA0EFE404141EB010101EB445C5FEADF
:102560005C5C10D910EBDE7001EB045138BFBEF19A
:10257000004FBDE8104018BF704700280CBF491C31
:1025800020F00100704730D24FEAD42C11F5001131
:1025900024F400641BD0B1FA81F20B3AA41AA41EF1
:1025A000D2F12003914030FA03F31943904001EB3C
:1025B000CC71002C01EB0451BDE81040A8BF70475E
:1025C00001F1C0414FF0000001F000417047B0FA46
:1025D00080F310FA03F100D110BDE41A173C48054E
:1025E000C90AE4E701EB045110BD491001EB0451A5
:1025F000BDE810404FEA300002E04FF000017047A4
:102600004A0008BF0042F8D0B2F5001F28BF70474B
:1026100001F000414FF0000070479EEA445F07D090
:1026200011EA5E0FBDE8104004BF00210020704792
:10263000BDE8104070B5FFF72FFE00BF40DFF63E4B
:1026400083F00041104670470000E0FF43004FEA6E
:10265000D30C4FEA3C0C43401FBF40070CF16051C4
:1026600013F0FE4F70471CF0006F03D100200CF0F8
:10267000004170470CF0004343EA507010B540EA47
:10268000CC0000F070FA00BF000000924FEA000199
:10269000FFF750BE4FF000414FF00000A1F50021C0
:1026A0007047000090EA010F48BF81F0004100F13F
:1026B000DE82421A3CBF801A89184FEAD0524FF08E
:1026C0007F4C1CEA410FA2EBD15318BF9CEA026F6A
:1026D00000F03B804FF0004C4CEA00204CEA012116
:1026E00021FA03FC10EB0C0C1ED202F1FF325FEA60
:1026F0001C2040EBC25038BF70471CF07F0F4FEAE0
:10270000400C18BFBCF17F4F38BF7047C3F12003A6
:10271000994008BF20F00100BCF17F4F38BF7047DF
:10272000A0F1C04000F065BA4FEA3C00000A40EB5F
:10273000C25028BF1CF0FF0F4FEA400CE6D018BF74
:10274000BCF17F4F38BF7047EAE79CEA026F05D0C3
:1027500010EA5C0F08BF00F00040704710B500F0B1
:1027600002FA00BF64FBBE3E401058BFC0F14040BB
:10277000491058BFC1F140418142EFF300807047DA
:102780004FF47F0C1CEAD0121EBF1CEAD11392EA50
:102790000C0F93EA0C0F00F0858090EA010F48BF00
:1027A00042F4807240F4000C41F400002CF07F41B0
:1027B00020F07F4000B58142A2EB03020FF2081C1B
:1027C000ACEB504EC0F100009EF800E04FEA4E0E18
:1027D00000FB0EFC38BF49004FEA2C1C02F5FA0240
:1027E0000CFB0EF34FEACE1E4FEA112C4FEAC1212B
:1027F0000EEB635E42EB22420EFB0CFC4FEA1C53D5
:1028000000FB03114FEA112C4FEA01310EFB0CFCC7
:102810004FEADC4C00FB0C11C14228BF09184CEBFD
:1028200003335DF804EB10EB410143EBC250B2F50A
:102830007C0F38BF704729D512F0F00F1CBF00F194
:10284000C04000F000407047008182838485868705
:1028500088898B8C8D8E8F919293959697999A9C5F
:102860009D9FA0A2A3A5A7A8AAACAEB0B2B3B5B7CE
:10287000B9BCBEC0C2C5C7C9CCCED1D4D7D9DCDFA4
:10288000E2E6E9ECF0F3F7FAFE0000004FEA400C54
:102890000CF1807CBCF17E4F28BF7047B0F1C04086
:1028A00000F0A7B990EA010F0CEAD11348BF42F437
:1028B0008072624538BF634507D213F47F0F16D08C
:1028C00080EA010000F00040704710B500F04BF9BD
:1028D000097EFC3E00F005B880EA010000F00040EF
:1028E000704780EA010000F0004000F082B912F465
:1028F0007F0F04BF0248704780EA010000F079B9F9
:102900000000C07F50EA010C00F113801CF5000F9D
:1029100058BFBCF5000F01D48842704707D710F5A7
:10292000000F58BF11F5000F15D488427047894237
:1029300070471CF5000F04D5BCF5000FF7D5814298
:1029400070474FF0807C1CEB400F38BF1CEB410FF1
:1029500001D28142704710B500F005F99224490078
:102960004FF000504FF08051FFF7FEBE41000B0EBC
:10297000D3F19E0208D950F400034FEA032323FA4F
:1029800002F048BF4042704710B500F0ECF800BFBD
:1029900049922480002070476FF0004282EA2000B4
:1029A0007047000010F0004148BF4042B0FA80F389
:1029B00010FA03F2C3F19D030BD051EAC35101EBAE
:1029C0001220530638BF704700F1010008BF20F005
:1029D00001007047B0FA80F310FA03F2C3F19D03CF
:1029E0000AD0D90501EB1220530638BF704700F119
:1029F000010008BF20F001007047000050EA010C00
:102A000000F113801CF5000F58BFBCF5000F01D476
:102A10008842704707D710F5000F58BF11F5000F17
:102A200015D488427047894270471CF5000F04D5C1
:102A3000BCF5000FF7D5814270474FF0807C1CEB4E
:102A4000400F38BF1CEB410F01D28142704710B5D7
:102A500000F089F8922449004FF000504FF0805167
:102A6000FFF782BE4FF47F0C1CEAD0121EBF1CEA97
:102A7000D11392EA0C0F93EA0C0F00F0478090EA12
:102A8000010F48BF42F480724FF0004C4CEA002026
:102A90004CEA012102EB0302A0FB0113A2F50002A4
:102AA000002918BF43F001035B0028BF4FEA33033E
:102AB00042EB22425FEA132C4CEBC2502EBFBCEB20
:102AC000436FB2F57C0F70474FEA036CBCF1004FC7
:102AD00008BF20F00100B2F57C0F38BF70470BD55E
:102AE00082F0FF0212F5803FC8BF704700F1C0407E
:102AF000D8BF00F00040704700F5000C5FEA4C0CB6
:102B000048BF7047B0F1C04000F073B890EA010FC1
:102B10000CEAD11348BF42F48072624538BF634566
:102B200004D280EA010000F00040704710B500F0C8
:102B30001AF800BF8900013E00F007B800F009B89C
:102B40005FEA410C5FEA1C6C08D080EA010000F0EB
:102B500050B85FEA400C5FEA1C6CF6D14FF00040C1
:102B6000A0F5800070470EF1020E2EF0030E5EF805
:102B7000044B244204D44FEA4102B2F17F4F11D8F2
:102B80004FEA4003B3F17F4F0CD80ED14FEAD07C0F
:102B9000B2F17F4F0CEB4C0C0CF1020C08BF4CEB6C
:102BA000D17C04E04FF0080C01E04FEAD17C0CEB43
:102BB0004C0324FA03F404F00704B4F1040C06D225
:102BC0000EEB840CBDE810404CF0010C6047DFE8D0
:102BD0000CF0070802024FF00040A0F5800010BD85
:102BE0000846420018BFD2F1807288BF00F0004052
:102BF00010BDFF2141EAD050C005704751EA000CDA
:102C000000F113801CF5000F58BFBCF5000F01D474
:102C10008142704707D711F5000F58BF10F5000F1C
:102C200015D481427047894270471CF5000F04D5C6
:102C3000BCF5000FF7D5884270474FF0807C1CEB45
:102C4000410F38BF1CEB400F01D28842704780EA29
:102C5000010081EA000180EA0100FFF7F8BE0000F0
:102C600090EA010F48BF81F000413FF522AD421AC2
:102C700004D882F00042A0EB020011444FEAD05287
:102C80004FF07F4C1CEA410FA2EBD15318BF9CEAD6
:102C9000026F4AD04FF0004C4CEA00204CEA012170
:102CA00021FA03FCB0EB0C0C0FD412F0FE0F36D05F
:102CB0005FEA4C001DD5001240EBC25038BF704790
:102CC0001CF03F0F18BF70470BE0A2F101025FEA52
:102CD0001C2040EBC25038BF70471CF07F0F18BF5C
:102CE0007047C3F12003994014BF401E20F001003B
:102CF000704780084FEA122308BF7047B0FA80FC83
:102D0000A2EB0C02CCF1280C60FA0CF093EA122F23
:102D100004BF00EBC25070474FEAC3707047130AFC
:102D20005FEADC1008BF7047F6E79CEA026F04D048
:102D300010EA5C0F08BF0020704710B5FFF713FFC3
:102D400040DFF63E81F00040704729001401000288
:102D50001401290000000000000000000000000035
:102D60000000000000000000000000000000000063
:102D70000000000000000000000000000000000053
:102D800000000000000000005F5F5F606060616144
:102D9000616161626262626263636363636363630E
:102DA00064646464646464646464646464646464E3
:102DB00064646464636363636363636362626262E3
:102DC000626261616161606060605F5F5F5E5E5E04
:102DD0005D5D5D5C5C5C5B5B5A5A5959595858574C
:102DE00057565655555454535252515150504F4EB8
:102DF0004E4D4C4C4B4A4A4948484746454544434A
:102E0000424241403F3E3E3D3C3B3A3938383736FE
:102E10003534333231302F2E2D2C2B2A29282726DA
:102E200025242322211F1E1D1C1B1A1917161514D9
:102E30001311100F0E0C0B0A0907060503020100FF
:102E40000000000000000000000000000000000082
:102E5000000000F800000000000000333000000017
:102E600000160E00160E000000000000000000001A
:102E700040C07840C0784000043F04043F04040090
:102E8000007088FC08300000001820FF211E0000A0
:102E9000F008F000E018000000211C031E211E00B5
:102EA00000F00888700000001E212324192721103B
:102EB000000000160E0000000000000000000000EE
:102EC000000000E018040200000000071820400085
:102ED00000020418E0000000004020180700000075
:102EE000404080F0804040000202010F01020200D9
:102EF000000000F0000000000101011F01010100BD
:102F0000000000000000000000B0700000000000A1
:102F100000000000000000000001010101010101AA
:102F20000000000000000000003030000000000041
:102F30000000000080601804006018060100000016
:102F400000E010080810E000000F102020100F0013
:102F5000001010F8000000000020203F202000009A
:102F600000700808088870000030282422213000F2
:102F700000300888884830000018202020110E00FA
:102F80000000C02010F8000000070424243F2400A3
:102F900000F80888880808000019212020110E0078
:102FA00000E0108888180000000F112020110E008A
:102FB00000380808C83808000000003F0000000082
:102FC0000070880808887000001C222121221C0043
:102FD00000E010080810E0000000312222110F006C
:102FE000000000C0C0000000000000303000000001
:102FF000000000C0C0000000000080B070000000B1
:103000000000804020100800000102040810200089
:1030100040404040404040000404040404040400D4
:103020000008102040800000002010080402010069
:10303000007048080808F000000000303601000069
:10304000C030C828E810E0000718272423140B001C
:103050000000C038E0000000203C23020227382096
:1030600008F8888888700000203F202020110E007A
:10307000C030080808083800071820202010080071
:1030800008F808080810E000203F202020100F005A
:1030900008F88888E8081000203F20202320180026
:1030A00008F88888E8081000203F2000030000008E
:1030B000C03008080838000007182020221E02002F
:1030C00008F808000008F808203F210101213F20EE
:1030D000000808F8080800000020203F2020000019
:1030E00000000808F8080800C08080807F00000009
:1030F00008F888C028180800203F20012638200042
:1031000008F8080000000000203F202020203000A8
:1031100008F8F800F8F80800203F003F003F2000C2
:1031200008F830C00008F808203F200007183F00CA
:10313000E01008080810E0000F10202020100F00F9
:1031400008F808080808F000203F210101010000EC
:10315000E01008080810E0000F18242438504F0031
:1031600008F8888888887000203F2000030C3020F1
:1031700000708808080838000038202121221C002F
:10318000180808F8080818000000203F2000000078
:1031900008F808000008F808001F202020201F0061
:1031A0000878880000C83808000007380E010000C1
:1031B000F80800F80008F800033C0700073C03008B
:1031C000081868808068180820302C03032C3020F1
:1031D0000838C800C83808000000203F2000000060
:1031E00010080808C83808002038262120201800B8
:1031F000000000FE020202000000007F404040008C
:10320000000C30C000000000000000010638C000C3
:1032100000020202FE000000004040407F0000006B
:10322000002010080408102000000000000000002A
:10323000000000000000000080808080808080808E
:103240000002040800000000000000000000000070
:1032500000008080808000000019242222223F206C
:1032600008F8008080000000003F112020110E00AF
:103270000000008080800000000E1120202011003E
:10328000000000808088F800000E112020103F20F0
:103290000000808080800000001F22222222130074
:1032A000008080F0888888180020203F20200000BF
:1032B0000000808080808000006B94949493600074
:1032C00008F8008080800000203F210000203F207F
:1032D00000809898000000000020203F202000007F
:1032E000000000809898000000C08080807F00006F
:1032F00008F8000080808000203F24022D3020004C
:10330000000808F8000000000020203F20200000F6
:103310008080808080808000203F20003F20003F10
:10332000008080008080000000203F2100203F209E
:103330000000808080800000001F202020201F00CF
:10334000808000808000000080FFA12020110E00FE
:103350000000008080808000000E112020A0FF80EF
:10336000808080008080800020203F21200001009C
:1033700000008080808080000033242424241900F1
:10338000008080E0808000000000001F20200000FE
:103390008080000000808000001F202020103F203F
:1033A000808080000080808000010E3008060100CF
:1033B00080800080008080800F300C030C300F0074
:1033C00000808000808080000020312E0E3120009F
:1033D000808080000080808080818E7018060100CF
:1033E00000808080808080000021302C22213000ED
:1033F00000000000807C020200000000003F40400E
:1034000000000000FF00000000000000FF000000BE
:103410000002027C800000000040403F00000000ED
:10342000008040408000008000000000000101009A
:103430000000000000000000002F00000000070056
:10344000070000147F147F1400242A7F2A1200230F
:10345000130864620036495522500000000700003E
:1034600000001C224100000041221C000014083E04
:1034700008140008083E0808000000A060000008CA
:10348000080808080000606000000020100804021E
:10349000003E5149453E0000427F400000426151DC
:1034A0004946002141454B31001814127F10002776
:1034B00045454539003C4A49493000017109050339
:1034C00000364949493600064949291E000036366A
:1034D00000000000563600000008142241000014CD
:1034E00014141414000041221408000201510906AA
:1034F000003E4955592E007C1211127C007F49492B
:103500004936003E41414122007F4141221C007F5B
:1035100049494941007F09090901003E4149497A69
:10352000007F0808087F0000417F410000204041E3
:103530003F01007F08142241007F40404040007F4F
:10354000020C027F007F0408107F003E4141413E93
:10355000007F09090906003E4151215E007F0919DB
:1035600029460046494949310001017F0101003FD8
:103570004040403F001F2040201F003F4038403F58
:1035800000631408146300070870080700615149BC
:10359000454300007F414100000204081020000064
:1035A00041417F00000402010204004040404040CD
:1035B000000001020400002054545478007F484465
:1035C000443800384444442000384444487F00389C
:1035D0005454541800087E0901020018A4A4A47CC5
:1035E000007F080404780000447D4000004080848F
:1035F0007D00007F102844000000417F4000007CD7
:1036000004180478007C08040478003844444438E2
:1036100000FC242424180018242418FC007C08042E
:10362000040800485454542000043F444020003C07
:103630004040207C001C2040201C003C4030403C8E
:10364000004428102844001CA0A0A07C004464541E
:103650004C440000087F41000000007F0000000093
:10366000417F0800000804081008EFBC8C0000002F
:10367000000000000000000000000000000000004A
:10368000005838000000000000000000000000E3C7
:103690008082000000000000000000000000000028
:1036A00000000000000018242418000000000000A2
:1036B00000000000E5BF8300000000800000E00281
:1036C000041800000040800000100C0300003F4080
:1036D000404040407800010E00E78E870000001453
:1036E000A4442434AD6624940444A41400000809BE
:1036F0000808090909FD09090B0808090800E8A1DB
:103700008000000000F80808F80C0B08F80808F81A
:1037100000000040407F40407F4040407F40407F6D
:10372000404000E6B0A700000824236AAA2AAA6A3B
:103730002A2A2AEA020200001011151515FF151594
:103740001511100F3040F800E6B8A9000010600213
:103750008C0000FE9292929292FE00000004047E81
:1037600001407E42427E427E42427E4000E5BAA651
:1037700000000000FC242424FC252624FC2424240E
:10378000040040308F80844C55252525554C808081
:103790008000E5809200008060F80704645CC464E7
:1037A0004400F800FF00000000FF002062221F120A
:1037B00012004F807F0000E59CB00000202020FF19
:1037C000202080F88040FF2010F000001030100F03
:1037D0000808003F40405F4244437800E68F900075
:1037E00000101010FF109000FE9292929292FE0034
:1037F000000444827F0180423A4282FE9292928289
:1038000000E7A4BA000040404242424242C2424263
:10381000424242404000201008060040807F0000E5
:10382000000204083000E8AFB700004042CC0000BE
:10383000445454547F54545444400000007F20109A
:1038400000FF15151555957F000000E694BE000099
:103850000808F94A48C84820D8171010F01010007E
:1038600040300F20403F8040211608162140800044
:10387000E7BDAE0000001715D55557557D55575576
:10388000D5151700004040407F55555555555555A5
:103890007F40404000E6898B00000000242424245F
:1038A00024FC222222232200000002020202024201
:1038B000827F0202020202020200E68C87000010F0
:1038C0001010FF1090003F484844444442700004E8
:1038D00044827F010000FF4949494949FF0000E750
:1038E0008AB6000000083000FF20202020FF2020A2
:1038F000222C200004040201FF8040300E01061833
:1039000020408000E6808100000004848444245428
:103910008F1424448484040000413900003C40405A
:10392000424C40407004093100E6ADA300000002A3
:1039300002C2020202FE82828282820200004040B3
:10394000407F4040407F4040404040404000E5B81C
:10395000B80000201808EAACA8A8AFA8A8ACEA08EC
:1039600028180000003E02020202FF020212221E7C
:10397000000000E79B91000000007E0000FF004077
:10398000300F04146404000040407E42427E4242F4
:10399000427E42427E404000E6B58B00001060024D
:1039A0008C00FE02F202FE00F800FF000004047E1C
:1039B000018047300F10270047807F0000E580928C
:1039C00000008060F80704645CC4644400F800FFF1
:1039D00000000000FF002062221F1212004F807FB3
:1039E0000000E59CB00000202020FF202080F8800F
:1039F00040FF2010F000001030100F0808003F407A
:103A0000405F4244437800E691940000101010FF9C
:103A10001090A44424B56EA41444A4000444827FEE
:103A2000010008080909FD090B080800E8ADA60017
:103A30000012EAAFAAEA0FFA02888C5724548C8449
:103A4000000202EAAAAAABAAABAAAAAAAAEA02029E
:103A500000E68AA50000101010FF109000FE828280
:103A60008292A29E00000444827F010000FF8043F6
:103A70002C102C438000E581A500008060F8070829
:103A8000C838105454FF54547C10000000FF804983
:103A9000312F4849497F4949494800E5BAB70000F4
:103AA0000000FC4454545455FE545454F44444000F
:103AB00040300F40231549817F05091129444000FA
:103AC000E6A38000001010D0FF905020504C434CD3
:103AD0005020404000040300FF00414458414E6024
:103AE0005847404000E7B3BB0000000022322AA63E
:103AF000A2622111098101000000004222130B4241
:103B0000827E02020A1223460000E7BB9F000020CB
:103B100030AC63300088C8A8998E88A8C888002275
:103B2000672212128040300F00003F4040710000B9
:103B300000000000FF010101310909090989710133
:103B4000010101FFFF8080808080809681808080DD
:103B5000808080FFFF01818181FD8991A1C1FD816C
:103B6000818101FFFF808080809F888482819F8087
:103B7000808080FF943B0008000000204C00000083
:103B800028010008E03B00084C00002064310000E0
:103B900044010008F40100000000000000000000E3
:103BA0000000000000000000000000000000000015
:103BB0000000000000000000000000000000000005
:103BC00000000000000000000000000000000000F5
:103BD00000000000000000000000000000000000E5
:04000005080000ED02
:00000001FF
