:020000040800F2
:1000000098310020890100082108000857040008E1
:1000100057060008C3020008551000080000000041
:10002000000000000000000000000000050F0008B4
:10003000F502000800000000E30E0008F10F0008C0
:10004000A3010008A3010008A3010008A301000800
:10005000A3010008A3010008A3010008A3010008F0
:10006000A3010008A3010008A3010008A3010008E0
:10007000A3010008A3010008A3010008A3010008D0
:10008000A3010008A3010008A3010008A3010008C0
:10009000A3010008A3010008A3010008A3010008B0
:1000A000A3010008A3010008A3010008A3010008A0
:1000B000A3010008A3010008A3010008A301000890
:1000C000A3010008A3010008A3010008A301000880
:1000D000A3010008A3010008A3010008A301000870
:1000E000A3010008A3010008A301000800F002F822
:1000F00000F03AF80AA090E8000C82448344AAF188
:100100000107DA4501D100F02FF8AFF2090EBAE885
:100110000F0013F0010F18BFFB1A43F0010318473B
:10012000382A0000582A0000103A24BF78C878C145
:10013000FAD8520724BF30C830C144BF04680C60ED
:10014000704700000023002400250026103A28BF35
:1001500078C1FBD8520728BF30C148BF0B60704739
:100160001FB51FBD10B510BD00F076F81146FFF7A2
:10017000F7FF00F071FF00F094F803B4FFF7F2FF0F
:1001800003BC00F097F80000094880470948004781
:10019000FEE7FEE7FEE7FEE7FEE7FEE7FEE7FEE737
:1001A000FEE7FEE704480549054A064B7047000094
:1001B000F50F0008ED000008982B00209831002072
:1001C000982D0020982D00204FF0013C50F8042B72
:1001D00051F8043B9A4221D1A2EB0C03934313EA5A
:1001E000CC1317D150F8042B51F8043B9A4215D187
:1001F000A2EB0C03934313EACC130BD150F8042B5E
:1002000051F8043B9A4209D1A2EB0C03934313EA41
:10021000CC13DBD04FF00000704700BFD01A01BAFA
:10022000B1FA81F101F0180122FA01F0CB40C1F1DD
:100230002001DBB2C0B2C01A2CFA01F3D11A9143EB
:1002400011EAC311E6D1704770477047704700004C
:1002500000487047342B00207546FFF7F9FFAE4683
:1002600005006946534620F00700854618B020B5C2
:10027000FFF798FFBDE820404FF000064FF0000761
:100280004FF000084FF0000B21F00701AC46ACE83E
:10029000C009ACE8C009ACE8C009ACE8C0098D46AB
:1002A000704710B50446AFF300802046BDE810400B
:1002B000FFF763BF01491820ABBEFEE7260002002E
:1002C000704700BFFEE7000008B50121042000F0E0
:1002D00009FE0120ADF8000014208DF80300032072
:1002E0008DF802006946024800F01CF808BD0000C5
:1002F00000080140704700EBC001C9004FF0E02248
:100300005161002191610521116100BF4FF0E02191
:10031000096901F480310029F8D004214FF0E0226E
:10032000116170472DE9F0410246002500260020AA
:1003300000230024002791F803C00CF00F0591F86A
:1003400003C00CF0100CBCF1000F03D091F802C0F8
:100350004CEA050591F800C0BCF1000F31D01468DB
:1003600000202BE04FF0010C0CFA00F3B1F800C0B4
:100370000CEA03069E4220D183004FF00F0C0CFACA
:1003800003F7BC4305FA03FC4CEA040491F803C0EC
:10039000BCF1280F06D14FF0010C0CFA00FCC2F89A
:1003A00014C00AE091F803C0BCF1480F05D14FF02A
:1003B000010C0CFA00FCC2F810C0401C0828D1D374
:1003C0001460B1F800C0BCF1FF0F34DD54680020A8
:1003D0002EE000F1080C4FF0010808FA0CF3B1F818
:1003E00000C00CEA03069E4221D183004FF00F0C9F
:1003F0000CFA03F7BC4305FA03FC4CEA040491F839
:1004000003C0BCF1280F05D100F1080C08FA0CF864
:10041000C2F8148091F803C0BCF1480F07D100F175
:10042000080C4FF0010808FA0CF8C2F81080401CC4
:100430000828CED35460BDE8F081024600209368BE
:100440000B400BB1012000E0002070470AB10161B0
:1004500000E04161704700BFFEE7000008B50121E0
:10046000042000F03FFD8020ADF8000048208DF80A
:10047000030069461B48FFF755FF4021092000F0A3
:1004800092F84021092000F08EF8C021022000F0EF
:100490008AF80021032000F086F80021042000F0F3
:1004A00082F80021052000F07EF80021062000F0EF
:1004B0007AF80F21082000F076F80321092000F0D7
:1004C00072F827210A2000F06EF824210C2000F099
:1004D0006AF824210D2000F066F87F21102000F03A
:1004E00062F808BD0008014070B506460D460020C0
:1004F00000F02BF8012000F028F800F012F9AE20EF
:1005000000F0EAF800F04AF9072000F0E5F800F002
:1005100045F900F006F9AF2000F0DEF800F03EF9F2
:1005200000240DE000F0A4F83055681EA04203D16D
:10053000012000F0BCF802E0002000F0B8F8641CD4
:10054000AC42EFDB00F001F970BD70B5044600F07D
:10055000E8F8AE2000F0C0F800F020F918B100F083
:10056000F4F8002070BD204600F0B6F800F016F94F
:1005700018B100F0EAF80020F4E700F0D2F8AF205C
:1005800000F0AAF800F00AF918B100F0DEF8002037
:10059000E8E700F06DF80546012000F088F800F06B
:1005A000D4F82846DEE770B505460C4600F0B9F8E9
:1005B000AE2000F091F800F0F1F818B100F0C5F8A5
:1005C000002070BD284600F087F800F0E7F818B169
:1005D00000F0BBF80020F4E7204600F07DF800F0C2
:1005E000DDF818B100F0B1F80020EAE700F0ADF84E
:1005F0000120E6E710B501216B2000F015F800217D
:100600006C2000F011F80921192000F00DF80621E6
:100610001A2000F009F818211B2000F005F8182115
:100620001C2000F001F810BD70B505460C4600F026
:1006300078F8D02000F050F800F0B0F8284600F02C
:100640004BF800F0ABF8204600F046F800F0A6F8B2
:1006500000F07BF870BD00BFFEE7000010B5802100
:100660000248FFF7EAFE0446204610BD000C014098
:1006700070B50025012000F087F8002413E0002069
:1006800000F078F80220FFF736FE012000F072F843
:10069000FFF7E4FF10B18020204105430120FFF760
:1006A0002AFE601CC4B2082CE9DB284670BD10B5D8
:1006B0000446002000F05EF8204600F065F80220B5
:1006C000FFF719FE012000F055F80220FFF713FE96
:1006D000002000F04FF810BD70B50546002000F076
:1006E00049F800241AE080212141294009B1012163
:1006F00000E00021084600F047F80220FFF7FBFD6C
:10070000012000F037F80220FFF7F5FD002000F08F
:1007100031F80220FFF7EFFD601CC4B2082CE2DBC9
:1007200070BD10B5012000F02FF8012000F022F874
:100730000420FFF7E0FD002000F026F80420FFF77A
:10074000DAFD002000F016F810BD10B5002000F012
:1007500011F8002000F018F80420FFF7CCFD01206C
:1007600000F008F8012000F00FF80420FFF7C3FDA7
:1007700010BD000010B50446224640210148FFF795
:1007800065FE10BD000C014010B5044622468021D4
:100790000148FFF75BFE10BD000C014010B50024BE
:1007A0000120FFF7F1FF0120FFF7A5FD0120FFF772
:1007B000E1FF0120FFF79FFD07E0601CC4B2FA2CA7
:1007C00003DDFFF7C2FF012010BDFFF747FF002840
:1007D000F3D1FFF7CFFF0020F6E7000008B50121B5
:1007E000082000F07FFB4020ADF8000014208DF8B9
:1007F000030003208DF8020069460848FFF792FDC8
:100800008020ADF8000069460448FFF78BFD012009
:10081000FFF7B0FF0120FFF7B7FF08BD000C014054
:100820007047000000200CE0002106E00022064B8B
:1008300003EBC0135A544A1CD1B28029F6DB421C88
:10084000D0B20828F0DB7047941700202DE9F04360
:1008500004460D4616461F46284638E0224631E03B
:10086000002A2DDB7F2A2BDC002829DB3F2827DC10
:100870004FEAE07C00EB5C7C4FEAEC0CDFF8588040
:1008800008EBCC1C1CF802C003464FEAE07800EBF2
:1008900058784FEAE808A0EBC8094FF0010808FAB9
:1008A00009F82CEA080C01464FEAE07800EB58788A
:1008B0004FEAE808DFF8209009EBC81808F802C0F2
:1008C000511C0AB2A1199142CADC411C08B2E919B3
:1008D0008142C3DCBDE8F0839417002038B50024C2
:1008E00006E0002500E06D1CB5F57A7FFBD3641CA3
:1008F000B4F57A7FF5D30121082000F0F3FA142033
:100900008DF8030003208DF802004FF48070ADF8DD
:10091000000069460848FFF705FD4FF40070ADF888
:10092000000069460448FFF7FDFC012000F09AFA38
:10093000012000F0A3FA38BD000C014070B5054657
:10094000002411E080212141294009B1012100E06A
:100950000021084600F092FA012000F083FA0020FE
:1009600000F080FA601CC4B2082CEBDB012000F020
:1009700079FA002000F076FA70BD10B5012000F081
:100980007DFA012000F06EFA002000F077FA0020D6
:1009900000F068FA10BD10B5002000F06FFA0120D9
:1009A00000F060FA012000F069FA10BD10B5FFF701
:1009B00095FFAE2000F06EFAD52000F06BFA802093
:1009C00000F068FAA82000F065FA3F2000F062FA13
:1009D000D32000F05FFA002000F05CFA402000F025
:1009E00059FAA12000F056FAC82000F053FADA2094
:1009F00000F050FA122000F04DFA812000F04AFA7F
:100A0000CF2000F047FAD92000F044FAF12000F09E
:100A100041FADB2000F03EFA302000F03BFAA4203F
:100A200000F038FAA62000F035FA8D2000F032FAF6
:100A3000142000F02FFAAF2000F02CFAFFF7F2FE9E
:100A400000F0FCF910BD10B50246012000E0504353
:100A50000B1EA1F10101FAD110BD70B505460C467F
:100A600045F0B00000F016FA102141EA141000F031
:100A700011FA04F00F0000F00DFA70BDF8B506464B
:100A80000F4614461D46082D0CD1A4F120000E4936
:100A900001EB00101023082239460090304600F088
:100AA00047F80FE0062D0DD1A4F1200000EB400027
:100AB000064901EB400008230622394600903046E3
:100AC00000F036F8F8BD0000221E000812240008CD
:100AD0002DE9F04706468A4691461F46DDF82080FC
:100AE000002421E0381B411E1020FFF7ACFFB9FBAA
:100AF000F0F000F00F050A2D0ADA05F13001CAB254
:100B000004FB086108B243465146FFF7B7FF09E00E
:100B100005F13701CAB204FB086108B243465146E9
:100B2000FFF7ACFF601CC4B2BC42DBDBBDE8F08762
:100B30002DE9FF4F80460E469146DDF834B0002582
:100B400000244A4631464046039BFFF77FFE00BF24
:100B50005EE0002558E008EB0500002852DB08EBBA
:100B600005007F284EDC3046F11706EB5171C910A5
:100B70000FB2F11706EB5171C910A6EBC10A002E96
:100B800005DA781E07B20AF108000FFA80FA381960
:100B9000002817DB3819072814DC3819224901EB23
:100BA000C01008EB0501405C04FB09511BF8011063
:100BB00001FA0AF1084339191B4A02EBC11108EB8B
:100BC000050288543819401C00281BDB3819401CCA
:100BD000072817DC3819401C134901EBC01008EB3B
:100BE0000501405C04FB09511BF80110CAF1080221
:100BF000114108433919491C0B4A02EBC11108EB9A
:100C000005028854681CC5B24D45A4DB601CC4B203
:100C10000399481EC11700EB5171012202EBE1015B
:100C2000A14296DCBDE8FF8F941700202DE9F04724
:100C30000646894617461D46DDF82080002417E049
:100C4000281B411E0A20FFF7FEFEB7FBF0F00A2129
:100C5000B0FBF1F201FB120000F1300A04FB086165
:100C600008B2434652464946FFF708FF601CC4B22B
:100C7000AC42E5DBBDE8F0872DE9FE4F07468A462A
:100C8000144698460025AB460026CBE0605D00F098
:100C9000800058B94FF0010B2846691C8DB2205CCA
:100CA0008DF8040000208DF805006BE0605D00F019
:100CB000E000C02814D14FF0020B2846691C8DB209
:100CC000205C8DF80400605D00B9AFE02846691C27
:100CD0008DB2205C8DF8050000208DF8060051E0F3
:100CE000605D00F0F000E0281DD14FF0030B2846B6
:100CF000691C8DB2205C8DF80400605D00B995E040
:100D00002846691C8DB2205C8DF80500605D00B935
:100D10008CE02846691C8DB2205C8DF8060000200E
:100D20008DF807002EE0605D00F0F800F02826D175
:100D30004FF0040B2846691C8DB2205C8DF804002E
:100D4000605D00B972E02846691C8DB2205C8DF8A8
:100D50000500605D00B969E02846691C8DB2205C21
:100D60008DF80600605D00B960E02846691C8DB210
:100D7000205C8DF8070000208DF8080002E0681C58
:100D800085B24FE0BBF1010F0BD19DF80420B919DA
:100D900008B243465146FFF771FE06EB080086B2E3
:100DA0003FE04FF000090EE009EB890101EB49112A
:100DB000204A881801A9FFF707FA00B90EE009F1E7
:100DC00001001FFA80F909EB890101EB4911194A69
:100DD000881819A1FFF7F8F90028E5D100BFB8F18C
:100DE000080F12D109EB890000EB491011490844A2
:100DF000401DB919009008B210231A465146FFF75A
:100E000097FE06F1100086B20BE0B8F1060F08D18C
:100E1000B91908B206233F225146FFF72FFEB01D35
:100E200086B200BF605D00287FF430AF00BFBDE830
:100E3000FE8F00004C2600080000000010B50024C2
:100E40000BE000212046FFF708FE054901EBC41026
:100E5000802100F02FF8601CC4B2082CF1DB10BD1B
:100E60009417002010B5044622464FF480710248C2
:100E7000FFF7ECFA10BD0000000C014010B504466D
:100E800022464FF400710248FFF7E0FA10BD00005F
:100E9000000C014010B50446FFF76FFD7820FFF706
:100EA0004DFD0020FFF74AFD2046FFF747FDFFF705
:100EB00072FD10BD70B505460E46FFF75EFD782049
:100EC000FFF73CFD4020FFF739FD002404E0285DDA
:100ED000FFF734FD601CC4B2B442F8DBFFF75BFDE2
:100EE00070BD704729B1064A92690243044B9A616A
:100EF00004E0034A92698243014B9A617047000003
:100F000000100240704710B500F002F810BD00005C
:100F10000CB50020019000903348006840F4803008
:100F20003149086000BF3048006800F4003000908C
:100F30000198401C0190009818B90198B0F5A06F75
:100F4000F1D12948006800F4003010B10120009070
:100F500001E0002000900098012843D12348006858
:100F600040F01000214908600846006820F00300A6
:100F700008600846006840F0020008601A484068AF
:100F8000194948600846406848600846406840F48F
:100F9000806048600846406820F47C10486008463D
:100FA000406840F4E81048600846006840F08070EF
:100FB000086000BF0C48006800F000700028F9D0FD
:100FC0000948406820F00300074948600846406827
:100FD00040F00200486000BF0348406800F00C0089
:100FE0000828F9D10CBD000000100240002002408A
:100FF0007047000010B51348006840F00100114927
:10100000086008464068104908400E494860084694
:1010100000680E4908400B4908600846006820F443
:10102000802008600846406820F4FE0048604FF4C5
:101030001F008860FFF767FF4FF0006004490860F9
:1010400010BD0000001002400000FFF8FFFFF6FE98
:1010500008ED00E000BFFEE70EB5FFF735F9FFF73A
:10106000BDFBFFF7FBF9FFF7A1FCFFF7C3FAFFF7A2
:10107000D9FBE748E74908600020E74908600823F2
:10108000E6A200210846FFF7F7FD0823E5A20021AC
:101090006020FFF7F1FD0823E3A210210020FFF7F5
:1010A000EBFD0823252210215020FFF7E7FCFF204D
:1010B000FFF74BFADE49087008200223009008462B
:1010C000027820210020FFF703FDFFF7B7FE002084
:1010D000D84908604FE000BF8021D748FFF7ADF93D
:1010E0000128F9D00621D548FFF7FEF9D34800784A
:1010F0008007800BD149497840EA0120CF4989789F
:101100000843CF49CB4A126841F82200CB48C07847
:101110008007800BC949097940EA0120C74949790C
:101120000843C849C34A126841F82200C448C1496B
:10113000096850F82100B7490968884206D2C048BA
:10114000BC49096850F82100B2490860BC48B94957
:10115000096850F82100B0490968884206D9B848A2
:10116000B449096850F82100AB490860B1480068EB
:10117000401CB0490860AF480068B349096888421C
:10118000A9DBAC480068401EAD4951F82000AF49CA
:101190000860AF48AF49B04AB04BCDE9002102909A
:1011A000A74AA9480168A74800F086F92FE19848A6
:1011B0009849086000209849086064209D490860AB
:1011C0003AE09F489B49096850F821109948006807
:1011D00064389B4A42F820109A489649096850F8AA
:1011E0002110944800686438964A42F820109448C8
:1011F0009049096850F8210086490968884206D25A
:101200008F488C49096850F82100824908608C4851
:101210008849096850F821007F490968884206D941
:1012200087488449096850F821007B490860814853
:101230000068401C7F4908607E480068B0F5FA7F6E
:10124000BFDB4FF4C8707B490860A3E079480068B1
:10125000401E7B4951F820007C49086000BF802176
:101260007548FFF7EAF80128F9D006217348FFF71F
:101270003BF9724800788007800B7049497840EA52
:1012800001206E49897808436D496A4A126841F81D
:1012900022006A48C0788007800B6849097940EAD3
:1012A00001206649497908436649624A126841F853
:1012B000220063485F49096850F8210063490968C2
:1012C000884231D95E495B4A126851F822105F4A60
:1012D0001268881A00F04AFC614908604E490968A2
:1012E0004C4A1268881A00F041FC044621465C48CA
:1012F000006800F05DFB5A4908605A495848006888
:1013000000F048FC564908600846006800F012FCEE
:1013100055490968081A54490860084600680028B9
:1013200033DA0020086030E04549424A126851F83B
:101330002210464A1268501A00F018FC484908600A
:1013400035490968334A1268881A00F00FFC0446D0
:1013500021464348006800F02BFB414908604149A1
:101360003F48006800F016FC3D49086008460068E8
:1013700000F0E0FB3C49096808443B490860084626
:101380000068FF2801DDFF2008602A480068401C33
:101390002849086027480068B0F5FA7FFFF656AF85
:1013A0002B482C492C4A2D4BCDE900210290244A90
:1013B00025480168234800F07FF825480078012877
:1013C0000CD124480068782808DA22480078274998
:1013D0000870224800782649087004E0002023495C
:1013E0000870234908700820032300901F480278E2
:1013F00000213020FFF71AFC0820032300901C482E
:10140000027810213020FFF711FCFFF717FDCEE620
:10141000FFFF03001400002018000020E5BF83E751
:101420008E873A0042504D00E8A180E6B0A73A000E
:101430003200002020000020000801402C00002085
:1014400064230020941B0020000000201C000020CA
:10145000100000200C0000200800002004000020E4
:101460002800002000007F432400002011000020FD
:10147000120000202DE9F84705460C4616461F4687
:10148000DDE90A9ADDF824803B46324621462846AB
:10149000CDF8008000F0C2F94B463246214628467E
:1014A00000F011FA2068504501DA206800E050464B
:1014B0002060BDE8F88700002DE9FF4FA4B0834607
:1014C000884600202390002405E05BF82410239830
:1014D00008442390641C4445F7DB2398B0FBF8F0E4
:1014E0002390002408E05BF824102398081A404257
:1014F000C64941F82400641C4445F4DB002417E08D
:10150000C24951F824200B46611C53F821100A44AB
:10151000A11C53F821100A44E11C53F82110501863
:10152000C11700EB917189101A4642F82410641C0F
:10153000B4F5F87FE4DB0027002404E0B34850F85A
:1015400024000744641CB4F5FA7FF7DB4FF4FA700B
:1015500097FBF0F71E2F00DA1E273C2F00DD3C27FB
:10156000002404E0002012A941F82400641C0F2C80
:10157000F8DB0F2004214FF4FA73A44ACDE900717F
:10158000029021A912A8FFF775FF00201190219861
:10159000022821DB01240BE012A850F82410601E61
:1015A00012AA52F82000091A119808441190641CDC
:1015B00021988442F0DB2198401E119991FBF0F0B4
:1015C000119041F27071119891FBF0F13298016025
:1015D00001213398017005E08D49329801600021A6
:1015E0003398017000240BE05BF82400874941F830
:1015F0002400269850F82400864941F82400641CF1
:101600004445F1DB2198229000200590002600241B
:1016100004E0002006A941F82400641C052CF8DB36
:1016200000240FE012A850F82400B0F5FA7F08DD7E
:1016300077492798016000213198017028B0BDE8F2
:10164000F08F641C22988442ECDB0024A3E04FF06E
:101650007F400D900C9012A9601C51F8200051F8A9
:101660002410401A03287DDD12A850F8245016E0FB
:10167000664850F825100C98814204DD634850F804
:1016800025000C900B95634850F825100D98814269
:1016900004DD604850F825000D90AA466D1C12A983
:1016A000601C51F82000A842E2DC601C51F82000C8
:1016B000584951F8200012A951F82410554A52F8FF
:1016C0002110401A12A951F82410AAEB0101484335
:1016D000109012A9601C51F8200051F82410411AF2
:1016E000109890FBF1F012A951F8241052F8211033
:1016F00008441090104650F82A101098081A1090BC
:1017000012A9601C51F82000404951F8200012A98C
:1017100051F824103D4A52F82110401A12A951F8EC
:1017200024200B99891A48430F9012A9601C51F884
:10173000200051F82410411A0F9890FBF1F012A9E3
:1017400051F82410314A52F8211008440F901046E5
:1017500050F82A100F98081A0F900C9910984843C7
:10176000C01100E016E004900D990F984843C01195
:101770000390039800280DDD052E0BDA049848B17C
:10178000642104984843039990FBF1F006A941F8BD
:101790002600761C641C2298401EA0423FF757AFDB
:1017A000314606A800F0C8F8304606EBD0714FEA83
:1017B0006109B9F1010F0CDDA9F1010106AA52F886
:1017C000211052F82920881800EBD071491005919A
:1017D00003E006A850F829000590059802280DDDC1
:1017E0000598B8280ADA0C490598085C0E902799E4
:1017F0000E98086001213198017005E0044927988E
:10180000016000213198017000BF17E7F407002044
:1018100019FCFFFFC40F00206A1D00082DE9F047E6
:1018200005461E46089C01204FF0000800230027B3
:101830004FF0040C4FF00009C1F800903DE0BFBB31
:1018400052F82090A14509DD52F820A0A0F101092D
:1018500052F82990CA4501DD4FF00108B8F1010F97
:101860002AD152F82090A14505DA634503DA4FF0FA
:101870000008002320E063451BD152F82090A145C9
:101880001ADAA0F1010952F82990A14514DBD1F828
:101890000090B9F10F0F07DAD1F800A00AF10109A1
:1018A000C1F8009045F82A0000239846082703E075
:1018B00001E05B1C00E07F1E401CA6F10109814590
:1018C000BDDCBDE8F0872DE9F04F05460C46924699
:1018D000984629465046226800F049F84FF0FF36F6
:1018E00021E0D4F800B0701C2060771C18E055F897
:1018F0002710701C10B94FF0FF3001E055F826009A
:10190000A1EB0009C14503DCC8F10000814506DAFE
:1019100055F827102268501C206045F822107F1CC3
:101920005F45E4DB761C2068B042DADC284621689B
:1019300000F002F8BDE8F08F30B50C46012213E04C
:1019400050F82230114605E04D1E50F8255040F861
:101950002150491E002904DD4D1E50F825509D429E
:10196000F2DC40F82130521CA242E9DB30BDF0B578
:1019700003461546012217E051F82240104605E0C3
:10198000461E51F8266041F82060401E002808DD00
:1019900053F82470461E51F8266053F82660B7426B
:1019A000EEDC41F82040521CAA42E5DBF0BD00000D
:1019B0004FF47F0C1CEAD0121EBF1CEAD11392EA2E
:1019C0000C0F93EA0C0F00F0858090EA010F48BFDE
:1019D00042F4807240F4000C41F400002CF07F418E
:1019E00020F07F4000B58142A2EB03020FF2081CF9
:1019F000ACEB504EC0F100009EF800E04FEA4E0EF6
:101A000000FB0EFC38BF49004FEA2C1C02F5FA021D
:101A10000CFB0EF34FEACE1E4FEA112C4FEAC12108
:101A20000EEB635E42EB22420EFB0CFC4FEA1C53B2
:101A300000FB03114FEA112C4FEA01310EFB0CFCA5
:101A40004FEADC4C00FB0C11C14228BF09184CEBDB
:101A500003335DF804EB10EB410143EBC250B2F5E8
:101A60007C0F38BF704729D512F0F00F1CBF00F172
:101A7000C04000F0004070470081828384858687E3
:101A800088898B8C8D8E8F919293959697999A9C3D
:101A90009D9FA0A2A3A5A7A8AAACAEB0B2B3B5B7AC
:101AA000B9BCBEC0C2C5C7C9CCCED1D4D7D9DCDF82
:101AB000E2E6E9ECF0F3F7FAFE0000004FEA400C32
:101AC0000CF1807CBCF17E4F28BF7047B0F1C04064
:101AD00000F027B990EA010F0CEAD11348BF42F495
:101AE0008072624538BF634507D213F47F0F16D06A
:101AF00080EA010000F00040704710B500F0CBF81C
:101B0000097EFC3E00F005B880EA010000F00040CC
:101B1000704780EA010000F0004000F002B912F4C2
:101B20007F0F04BF0248704780EA010000F0F9B857
:101B30000000C07F41000B0ED3F19E0208D950F483
:101B400000034FEA032323FA02F048BF40427047E4
:101B500010B500F0A0F800BF499224800020704723
:101B60006FF0004282EA200070470000B0FA80F374
:101B700010FA03F2C3F19D030AD0D90501EB12203C
:101B8000530638BF704700F1010008BF20F0010084
:101B9000704700004FF47F0C1CEAD0121EBF1CEAF5
:101BA000D11392EA0C0F93EA0C0F00F0478090EAF1
:101BB000010F48BF42F480724FF0004C4CEA002005
:101BC0004CEA012102EB0302A0FB0113A2F5000283
:101BD000002918BF43F001035B0028BF4FEA33031D
:101BE00042EB22425FEA132C4CEBC2502EBFBCEBFF
:101BF000436FB2F57C0F70474FEA036CBCF1004FA6
:101C000008BF20F00100B2F57C0F38BF70470BD53C
:101C100082F0FF0212F5803FC8BF704700F1C0405C
:101C2000D8BF00F00040704700F5000C5FEA4C0C94
:101C300048BF7047B0F1C04000F073B890EA010FA0
:101C40000CEAD11348BF42F48072624538BF634545
:101C500004D280EA010000F00040704710B500F0A7
:101C60001AF800BF8900013E00F007B800F009B87B
:101C70005FEA410C5FEA1C6C08D080EA010000F0CA
:101C800050B85FEA400C5FEA1C6CF6D14FF00040A0
:101C9000A0F5800070470EF1020E2EF0030E5EF8E4
:101CA000044B244204D44FEA4102B2F17F4F11D8D1
:101CB0004FEA4003B3F17F4F0CD80ED14FEAD07CEE
:101CC000B2F17F4F0CEB4C0C0CF1020C08BF4CEB4B
:101CD000D17C04E04FF0080C01E04FEAD17C0CEB22
:101CE0004C0324FA03F404F00704B4F1040C06D204
:101CF0000EEB840CBDE810404CF0010C6047DFE8AF
:101D00000CF0070802024FF00040A0F5800010BD63
:101D10000846420018BFD2F1807288BF00F0004030
:101D200010BDFF2141EAD050C005704729001401C1
:101D30000002140129000000000000000000000063
:101D40000000000000000000000000000000000093
:101D50000000000000000000000000000000000083
:101D6000000000000000000000005F5F5F60606036
:101D70006161616161626262626263636363636342
:101D80006363646464646464646464646464646415
:101D9000646464646464636363636363636362620F
:101DA0006262626261616161606060605F5F5F5E2C
:101DB0005E5E5D5D5D5C5C5C5B5B5A5A595959586F
:101DC00058575756565555545453525251515050D6
:101DD0004F4E4E4D4C4C4B4A4A4948484746454564
:101DE0004443424241403F3E3E3D3C3B3A39383815
:101DF00037363534333231302F2E2D2C2B2A2928EB
:101E0000272625242322211F1E1D1C1B1A191716E5
:101E100015141311100F0E0C0B0A09070605030207
:101E200001000000000000000000000000000000B1
:101E30000000000000F80000000000000033300047
:101E4000000000160E00160E00000000000000004A
:101E5000000040C07840C0784000043F04043F04C4
:101E60000400007088FC08300000001820FF211ECC
:101E70000000F008F000E018000000211C031E2103
:101E80001E0000F00888700000001E21232419277E
:101E90002110000000160E000000000000000000ED
:101EA0000000000000E018040200000000071820F5
:101EB000400000020418E000000000402018070065
:101EC0000000404080F0804040000202010F01020B
:101ED0000200000000F0000000000101011F0101EC
:101EE0000100000000000000000000B070000000D1
:101EF00000000000000000000000000101010101DD
:101F0000010100000000000000000030300000006F
:101F10000000000000008060180400601806010046
:101F2000000000E010080810E000000F1020201052
:101F30000F00001010F8000000000020203F2020BB
:101F40000000007008080888700000302824222152
:101F50003000003008888848300000182020201108
:101F60000E000000C02010F8000000070424243FE9
:101F7000240000F808888808080000192120201192
:101F80000E0000E0108888180000000F11202011BA
:101F90000E0000380808C83808000000003F0000A4
:101FA00000000070880808887000001C222121228F
:101FB0001C0000E010080810E0000000312222118F
:101FC0000F00000000C0C000000000000030300022
:101FD0000000000000C0C0000000000080B07000E1
:101FE00000000000804020100800000102040810DA
:101FF00020004040404040404000040404040404E9
:102000000400000810204080000000201008040296
:102010000100007048080808F00000000030360198
:102020000000C030C828E810E00007182724231457
:102030000B000000C038E0000000203C2302022713
:10204000382008F8888888700000203F2020201160
:102050000E00C0300808080838000718202020109B
:10206000080008F808080810E000203F2020201091
:102070000F0008F88888E8081000203F202023205F
:10208000180008F88888E8081000203F20000300A6
:102090000000C03008080838000007182020221E61
:1020A000020008F808000008F808203F210101217B
:1020B0003F20000808F8080800000020203F2020EA
:1020C000000000000808F8080800C08080807F0039
:1020D000000008F888C028180800203F2001263892
:1020E000200008F8080000000000203F20202020E9
:1020F000300008F8F800F8F80800203F003F003FE3
:10210000200008F830C00008F808203F2000071819
:102110003F00E01008080810E0000F1020202010F9
:102120000F0008F808080808F000203F210101010D
:102130000000E01008080810E0000F1824243850B0
:102140004F0008F8888888887000203F2000030C22
:10215000302000708808080838000038202121222B
:102160001C00180808F8080818000000203F20008C
:10217000000008F808000008F808001F20202020B0
:102180001F000878880000C83808000007380E01D2
:102190000000F80800F80008F800033C0700073CBE
:1021A0000300081868808068180820302C03032C6E
:1021B00030200838C800C83808000000203F200040
:1021C000000010080808C838080020382621202000
:1021D0001800000000FE020202000000007F4040E4
:1021E0004000000C30C00000000000000001063874
:1021F000C00000020202FE000000004040407F00DC
:10220000000000201008040810200000000000005A
:1022100000000000000000000000808080808080BE
:1022200080800002040800000000000000000000A0
:1022300000000000808080800000001924222222FB
:102240003F2008F8008080000000003F112020118E
:102250000E000000008080800000000E1120202071
:102260001100000000808088F800000E112020106E
:102270003F200000808080800000001F2222222258
:102280001300008080F0888888180020203F2020DC
:1022900000000000808080808000006B9494949304
:1022A000600008F8008080800000203F21000020AE
:1022B0003F2000809898000000000020203F202050
:1022C0000000000000809898000000C08080807F9F
:1022D000000008F8000080808000203F24022D309C
:1022E0002000000808F8000000000020203F202007
:1022F00000008080808080808000203F20003F2080
:10230000003F008080008080000000203F210020EE
:102310003F200000808080800000001F20202020BF
:102320001F00808000808000000080FFA12020111D
:102330000E000000008080808000000E112020A090
:10234000FF80808080008080800020203F2120004E
:102350000100000080808080800000332424242439
:102360001900008080E0808000000000001F202015
:1023700000008080000000808000001F20202010CE
:102380003F20808080000080808000010E300806A1
:10239000010080800080008080800F300C030C30B2
:1023A0000F0000808000808080000020312E0E31E0
:1023B0002000808080000080808080818E701806E0
:1023C000010000808080808080000021302C22214C
:1023D000300000000000807C020200000000003F8E
:1023E000404000000000FF00000000000000FF006F
:1023F00000000002027C800000000040403F00001E
:1024000000000080404080000080000000000001CB
:1024100001000000000000000000002F000000008C
:102420000700070000147F147F1400242A7F2A125B
:10243000002313086462003649552250000000074B
:10244000000000001C224100000041221C0000147A
:10245000083E08140008083E0808000000A06000BC
:10246000000808080808000060600000002010084C
:102470000402003E5149453E0000427F40000042B8
:1024800061514946002141454B31001814127F101B
:10249000002745454539003C4A494930000171094A
:1024A000050300364949493600064949291E0000FE
:1024B00036360000000056360000000814224100A5
:1024C00000141414141400004122140800020151D5
:1024D0000906003E4955592E007C1211127C007FDE
:1024E00049494936003E41414122007F4141221C79
:1024F000007F49494941007F09090901003E4149DE
:10250000497A007F0808087F0000417F41000020D1
:1025100040413F01007F08142241007F404040407D
:10252000007F020C027F007F0408107F003E4141C3
:10253000413E007F09090906003E4151215E007FAE
:10254000091929460046494949310001017F010125
:10255000003F4040403F001F2040201F003F4038C8
:10256000403F006314081463000708700807006107
:102570005149454300007F414100000204081020FA
:10258000000041417F00000402010204004040407D
:102590004040000001020400002054545478007FA1
:1025A0004844443800384444442000384444487F78
:1025B00000385454541800087E0901020018A4A4DD
:1025C000A47C007F080404780000447D40000040A3
:1025D00080847D00007F102844000000417F40007F
:1025E000007C04180478007C080404780038444413
:1025F000443800FC242424180018242418FC007CEF
:102600000804040800485454542000043F44402067
:10261000003C4040207C001C2040201C003C4030FE
:10262000403C004428102844001CA0A0A07C00448A
:1026300064544C440000087F41000000007F00000B
:102640000000417F0800000804081008EFBC8C005F
:10265000000000000000000000000000000000007A
:1026600000000058380000000000000000000000DA
:1026700000E3808200000000000000000000000075
:1026800000000000000000001824241800000000D2
:10269000000000000000E5BF830000000080000093
:1026A000E002041800000040800000100C0300004D
:1026B0003F40404040407800010E00E78E87000018
:1026C0000014A4442434AD6624940444A4140000EB
:1026D00008090808090909FD09090B080809080083
:1026E000E8A18000000000F80808F80C0B08F808C2
:1026F00008F800000040407F40407F4040407F405D
:10270000407F404000E6B0A700000824236AAA2AC0
:10271000AA6A2A2A2AEA020200001011151515FFDA
:1027200015151511100F3040F800E6B8A90000107B
:1027300060028C0000FE9292929292FE00000004D1
:10274000047E01407E42427E427E42427E4000E55F
:10275000BAA600000000FC242424FC252624FC2426
:102760002424040040308F80844C55252525554C69
:1027700080808000E5809200008060F80704645C3F
:10278000C4644400F800FF00000000FF0020622243
:102790001F1212004F807F0000E59CB00000202037
:1027A00020FF202080F88040FF2010F00000103033
:1027B000100F0808003F40405F4244437800E68F16
:1027C000900000101010FF109000FE9292929292D2
:1027D000FE00000444827F0180423A4282FE9292CF
:1027E000928200E7A4BA000040404242424242C204
:1027F0004242424242404000201008060040807F92
:102800000000000204083000E8AFB700004042CCEE
:102810000000445454547F54545444400000007FFA
:10282000201000FF15151555957F000000E694BE99
:1028300000000808F94A48C84820D8171010F010BE
:10284000100040300F20403F8040211608162140E4
:102850008000E7BDAE0000001715D55557557D55D2
:102860005755D5151700004040407F5555555555D3
:1028700055557F40404000E6898B0000000024242D
:10288000242424FC2222222322000000020202022D
:102890000242827F0202020202020200E68C8700EC
:1028A00000101010FF1090003F484844444442700C
:1028B000000444827F010000FF4949494949FF0063
:1028C00000E78AB6000000083000FF20202020FF2B
:1028D0002020222C200004040201FF8040300E0141
:1028E000061820408000E6808100000004848444B3
:1028F00024548F1424448484040000413900003C93
:102900004040424C40407004093100E6ADA3000055
:10291000000202C2020202FE828282828202000061
:102920004040407F4040407F404040404040400069
:10293000E5B8B80000201808EAACA8A8AFA8A8AC71
:10294000EA0828180000003E02020202FF020212FA
:10295000221E000000E79B91000000007E0000FFA7
:102960000040300F04146404000040407E42427E68
:102970004242427E42427E404000E6B58B0000105B
:1029800060028C00FE02F202FE00F800FF0000046C
:10299000047E018047300F10270047807F0000E54C
:1029A000809200008060F80704645CC4644400F80E
:1029B00000FF00000000FF002062221F1212004FE3
:1029C000807F0000E59CB00000202020FF202080B8
:1029D000F88040FF2010F000001030100F080800B1
:1029E0003F40405F4244437800E69194000010105D
:1029F00010FF1090A44424B56EA41444A400044411
:102A0000827F010008080909FD090B080800E8ADEC
:102A1000A6000012EAAFAAEA0FFA02888C572454E3
:102A20008C84000202EAAAAAABAAABAAAAAAAAEAC2
:102A3000020200E68AA50000101010FF109000FEB0
:102A400082828292A29E00000444827F010000FFE5
:102A500080432C102C438000E581A500008060F8A5
:102A60000708C838105454FF54547C10000000FF6D
:102A70008049312F4849497F4949494800E5BAB75B
:102A800000000000FC4454545455FE545454F44483
:102A9000440040300F40231549817F050911294426
:102AA0004000E6A38000001010D0FF905020504C52
:102AB000434C5020404000040300FF004144584173
:102AC0004E605847404000E7B3BB00000000223290
:102AD0002AA6A262211109810100000000422213EE
:102AE0000B42827E02020A1223460000E7BB9F00CF
:102AF000002030AC63300088C8A8998E88A8C888A8
:102B00000022672212128040300F00003F404071C7
:102B1000000000000000FF010101310909090989D5
:102B20007101010101FFFF8080808080809681809B
:102B30008080808080FFFF01818181FD8991A1C11A
:102B4000FD81818101FFFF808080809F8884828158
:102B50009F80808080FF0000782B0008000000200C
:102B60003400000028010008AC2B000834000020CD
:102B70006431000044010008F4010000000000007E
:102B80000000000000000000000000000000000045
:102B90000000000000000000000000000000000035
:0C2BA00000000000000000000000000029
:04000005080000ED02
:00000001FF
